:020000040000fa
:080000000002040000000000f2
:020000040000fa
:04000800660400008a
:020000040000fa
:04000c006604000086
:020000040000fa
:040010006604000082
:020000040000fa
:04001400660400007e
:020000040000fa
:04001800660400007a
:020000040000fa
:04001c006604000076
:020000040000fa
:040020006604000072
:020000040000fa
:04002400660400006e
:020000040000fa
:0400280006030000cb
:020000040000fa
:04002c006604000066
:020000040000fa
:040030006604000062
:020000040000fa
:04003400d4030000f1
:020000040000fa
:04003800660400005a
:020000040000fa
:04003c006604000056
:020000040000fa
:040040006604000052
:020000040000fa
:04004400660400004e
:020000040000fa
:04004800660400004a
:020000040000fa
:04004c006604000046
:020000040000fa
:040050006604000042
:020000040000fa
:04005400660400003e
:020000040000fa
:04005800660400003a
:020000040000fa
:04005c00c8020000d6
:020000040000fa
:040060006604000032
:020000040000fa
:04006400660400002e
:020000040000fa
:04006800660400002a
:020000040000fa
:04006c006604000026
:020000040000fa
:040070006604000022
:020000040000fa
:04007400dc020000aa
:020000040000fa
:040078003e03000043
:020000040000fa
:04007c006604000016
:020000040000fa
:040080006604000012
:020000040000fa
:04008400660400000e
:020000040000fa
:04008800660400000a
:020000040000fa
:04008c006604000006
:020000040000fa
:040090006604000002
:020000040000fa
:040094005004000014
:020000040000fa
:0400980066040000fa
:020000040000fa
:04009c006e030000ef
:020000040000fa
:0400a00066040000f2
:020000040000fa
:0400a40066040000ee
:020000040000fa
:0400a80066040000ea
:020000040000fa
:0400ac0066040000e6
:020000040000fa
:0400b00066040000e2
:020000040000fa
:0400b40066040000de
:020000040000fa
:0400b80066040000da
:020000040000fa
:0400bc0066040000d6
:020000040000fa
:0400c00066040000d2
:020000040000fa
:0400c40066040000ce
:020000040000fa
:0400c80066040000ca
:020000040000fa
:0400cc0066040000c6
:020000040000fa
:0400d00066040000c2
:020000040000fa
:0400d40066040000be
:020000040000fa
:0400d80066040000ba
:020000040000fa
:0400dc0066040000b6
:020000040000fa
:0400e00066040000b2
:020000040000fa
:0400e40066040000ae
:020000040000fa
:0400e80066040000aa
:020000040000fa
:0400ec0066040000a6
:020000040000fa
:0400f00066040000a2
:020000040000fa
:0400f400660400009e
:020000040000fa
:0400f800660400009a
:020000040000fa
:0400fc00800300007d
:020000040000fa
:04010000aa0300004e
:020000040000fa
:04010400660400008d
:020000040000fa
:040108006604000089
:020000040000fa
:04010c006604000085
:020000040000fa
:040110006604000081
:020000040000fa
:04011400660400007d
:020000040000fa
:040118006604000079
:020000040000fa
:04011c006604000075
:020000040000fa
:040120006604000071
:020000040000fa
:04012400660400006d
:020000040000fa
:040128006604000069
:020000040000fa
:04012c006604000065
:020000040000fa
:040130006604000061
:020000040000fa
:04013400660400005d
:020000040000fa
:040208006604000088
:020000040000fa
:04020c006604000084
:020000040000fa
:040210006604000080
:020000040000fa
:04021400660400007c
:020000040000fa
:040218006604000078
:020000040000fa
:04021c006604000074
:020000040000fa
:040220006604000070
:020000040000fa
:04022400660400006c
:020000040000fa
:040228006604000068
:020000040000fa
:04022c006604000064
:020000040000fa
:040230006604000060
:020000040000fa
:04023400660400005c
:020000040000fa
:040238006604000058
:020000040000fa
:04023c006604000054
:020000040000fa
:040240006604000050
:020000040000fa
:04024400660400004c
:020000040000fa
:040248006604000048
:020000040000fa
:04024c006604000044
:020000040000fa
:040250006604000040
:020000040000fa
:04025400660400003c
:020000040000fa
:040258006604000038
:020000040000fa
:04025c006604000034
:020000040000fa
:040260006604000030
:020000040000fa
:04026400660400002c
:020000040000fa
:040268006604000028
:020000040000fa
:04026c006604000024
:020000040000fa
:040270006604000020
:020000040000fa
:04027400660400001c
:020000040000fa
:040278006604000018
:020000040000fa
:04027c006604000014
:020000040000fa
:040280006604000010
:020000040000fa
:04028400660400000c
:020000040000fa
:040288006604000008
:020000040000fa
:04028c006604000004
:020000040000fa
:040290006604000000
:020000040000fa
:0402940066040000fc
:020000040000fa
:0402980066040000f8
:020000040000fa
:04029c0066040000f4
:020000040000fa
:0402a00066040000f0
:020000040000fa
:0402a40066040000ec
:020000040000fa
:0402a80066040000e8
:020000040000fa
:0402ac0066040000e4
:020000040000fa
:0402b00066040000e0
:020000040000fa
:0402b40066040000dc
:020000040000fa
:0402b80066040000d8
:020000040000fa
:0402bc0066040000d4
:020000040000fa
:0402c00066040000d0
:020000040000fa
:0402c40066040000cc
:020000040000fa
:0402c80066040000c8
:020000040000fa
:0402cc0066040000c4
:020000040000fa
:0402d00066040000c0
:020000040000fa
:0402d40066040000bc
:020000040000fa
:0402d80066040000b8
:020000040000fa
:0402dc0066040000b4
:020000040000fa
:0402e00066040000b0
:020000040000fa
:0402e40066040000ac
:020000040000fa
:0402e80066040000a8
:020000040000fa
:0402ec0066040000a4
:020000040000fa
:0402f00066040000a0
:020000040000fa
:0402f400660400009c
:020000040000fa
:0402f8006604000098
:020000040000fa
:0402fc006604000094
:020000040000fa
:04030000660400008f
:020000040000fa
:04030400660400008b
:020000040000fa
:040308006604000087
:020000040000fa
:04030c006604000083
:020000040000fa
:04031000660400007f
:020000040000fa
:04031400660400007b
:020000040000fa
:040318006604000077
:020000040000fa
:04031c006604000073
:020000040000fa
:04032000660400006f
:020000040000fa
:04032400660400006b
:020000040000fa
:040328006604000067
:020000040000fa
:04032c006604000063
:020000040000fa
:04033000660400005f
:020000040000fa
:04033400660400005b
:020000040000fa
:100400008f8e20000e7f22000e0188000000000069
:10041000000020000000e000020032000001200087
:1004200020028800140007002a0107000000e000f5
:1004300003003a00c0a32900010020000200370099
:100440000000200001002000810f70000100320038
:1004500014000700000020000000e000020032004d
:1004600000000200000000003095020000000000c3
:100470000040da000000fe004440a9008060270030
:100480000000e0000300320000002000a00188000e
:100490004440a800000006008a1f78008b1f7800e7
:1004a0000000060091018800800478000000eb0045
:1004b0001a003700e284440032a0b4009905ba0063
:1004c000e284440032a0b4009906ba00e2844400f9
:1004d00032a0b4000006eb00476fde00fd07b2005b
:1004e000636ce10003003a00ebff07000000eb0043
:1004f0000a003700606ce10004003a00005deb0088
:100500008b05e900fdff3e00040037006168e10053
:10051000010032000086eb000b00070019c7ba008b
:100520001905ba000e04e00003003a000a00e000da
:10053000e0ff3a0000000600fe07b2009e018800be
:100540008a047800f5ff3700395dba008b05e900b1
:100550000c003200295dba008b05e900080032006a
:100560000c00e00003003a00e284440032a0b40032
:10057000f5ff370019ddba008b05e900faff3a00f4
:100580008904e800e184440032a0b40000000600c1
:100590003400f800881f780008002000a8018800b7
:1005a0004f0478000000fa0085a0a9000080fa003e
:1005b0003400f900004006003600f800809fbe00bd
:1005c000829fbe00849fbe00869fbe003400f8005c
:1005d00000002000a00188000000fa004016800002
:1005e0007c006000604088005e4707000080fa00e1
:1005f0003400f9004f03be004f02be004f01be00a1
:100600004f00be003600f900004006003600f8003a
:10061000809fbe00829fbe00849fbe00869fbe005a
:100620003400f80000002000a00188000000fa005b
:100630001140800000002800008060000000e00001
:100640000400320010002000010020005c3d070083
:1006500003e8a9006b4707008400a9000080fa00a6
:100660003400f9004f03be004f02be004f01be0030
:100670004f00be003600f90000400600809fbe001b
:10068000821f78003400f80000002000a0018800dc
:100690000000fa00e0168000004078006140600031
:1006a00000c0ea00614060000080fb006100600063
:1006b000e2168000e1ff2f00810061000100700060
:1006c000e01688008680a9000080fa003400f90056
:1006d0004f0178004f00be00004006003400f800d3
:1006e000881f780008002000a80188004f047800c7
:1006f0000000fa000080fa003400f9000040060013
:100700003600f800809fbe00829fbe00849fbe001e
:10071000869fbe003400f80000002000a001880081
:100720000000fa009ac0a900334407009ac0a8004c
:100730008aa0a9000080fa003400f9004f03be002f
:100740004f02be004f01be004f00be003600f90050
:10075000004006003600f800809fbe00829fbe0069
:10076000849fbe00869fbe003400f8000000200079
:10077000a00188000000fa009aa0a90052470700d3
:100780009aa0a8008ac0a9000080fa003400f900ed
:100790004f03be004f02be004f01be004f00be001f
:1007a0003600f900004006003600f800809fbe00c9
:1007b000829fbe00849fbe00869fbe003400f8006a
:1007c00000002000a00188000000fa000021ef00d6
:1007d000201680004900de006140600000c0ea0091
:1007e000614060000080fb00610060004900dd00a6
:1007f00022168000f1df2f008100610001007000ef
:1008000020168800104080004900de006140600032
:1008100000c0ea00614060000080fb0061006000f1
:100820004900dd0012408000f1df2f0081006100ef
:1008300001007000104088001040800061006000de
:100840000000e0000b00320011408000002020007a
:10085000008060000000e00006003200c04180001f
:100860000000e00001003c00e6460700f7460700f4
:100870000200370000000000c442a9008460a90003
:100880000080fa003400f9004f03be004f02be00a2
:100890004f01be004f00be003600f90000400600c8
:1008a0003400f800881f780008002000a8018800a4
:1008b0004f0478000000fa001421ef008760a900bf
:1008c0000080fa003400f900004006000040da0021
:1008d0000000fe0000000500889fbe008a9fbe0049
:1008e0008c1f78009d000700a400330003866c0075
:1008f0006450e1002e0032006420e1003300320039
:100900006150e1002f0032006120e100310032002f
:1009100085855500eb07b000090020000804200081
:10092000050037000804440089844c000a003100a7
:100930000603430087834b000001530081815b0065
:10094000f8ff33000203be000800a00008044400c2
:1009500089844c00f6ff3900c639dd00830173003d
:1009600001003200130020008904d1000884d30064
:100970000998a300050032000800a7000300a000aa
:100980008904d1000884d3008b05e8008904d100d4
:100990000884d3000001eb000281d200340007007c
:1009a00001f0a1000cf0a70001f0a0007c003700ce
:1009b0006420e1007e0032000801be000200be009b
:1009c000f7ff37006120e100790032006000b800d5
:1009d000f3ff37000000200001f82700f0ff370088
:1009e0000001be00480007000470a70003f0a1004a
:1009f0006509b100160032000d0035006828e100dd
:100a000006003500f0ff2f00f1ff27000300e00093
:100a100013003b000100280000000500000040001a
:100a2000818048008502e900fcff3a000800370099
:100a3000f88f420002003c008000eb00000005003f
:100a40008100d1000080d3008502e800fcff3a005d
:100a50000300e00002003b0060001000e08018008e
:100a6000000006004f89de00820178008700370011
:100a700081002000618055000b003d000b0020002c
:100a800061fe2f000100e1001d0034008281710031
:100a9000610164008904d1000884d3000000e800eb
:100aa000faff3a007100200061006400030070004a
:100ab000020060000900320061044400e0844c0040
:100ac0000988a500050032008b05e8006808e100f0
:100ad00002003a008904d1000884d300f20f2000fc
:100ae0000258e10005003d00c75ddd00f907b200d6
:100af0008980750008007800000006000bf82700c8
:100b00008b00780000000500c70ade00f107b20084
:100b1000f50fb20008003200e1cf420002003200bf
:100b20000170a00024000500810f70000100320058
:100b30000408050044000500810f700002003a001f
:100b4000140005008502e9000000400081c0480053
:100b5000fcff3b000170a000240005000004be0063
:100b6000e9ff07000003be000405be000200be004e
:100b7000e5ff0700844f7500000006000200be007c
:100b80006450e100050036006420e10002003600f8
:100b90000968a30001003a000800be000160a0003f
:100ba0004f0678004f05be004f04be00000006004f
:100bb000f0ff2f00f1ff2700f9ff3700889fbe00ec
:100bc0008a9fbe008c1f7800e4ff0700ebff330014
:100bd00003866c006450e100240032006420e100d0
:100be000270032006150e100220032006120e10064
:100bf000210032008b854200eb07b1000134b800c0
:100c0000003ab8000804420089844a00013ab8005a
:100c10000030b8008880400009014a000400330019
:100c20000000400081804800020149008b05e90076
:100c3000c909dd00830170000100320013002000ab
:100c4000c814de004814dd004709de001200b200bf
:100c5000c808de000884700085ff070001f0a100cd
:100c60000cf0a70001f0a000cdff37006120e100eb
:100c7000cfff32000801be000200be00f7ff3700c0
:100c80006150e100fcff3a00c9ff3700881f78007f
:100c9000030478000300e00007003d00600010003e
:100ca000e080180060011900e081190002003b009b
:100cb00001f02d00030037000400070008f0a70032
:100cc00001f0a0004f04780000000600889fbe00dd
:100cd0008a9fbe00008270000402710004827100cd
:100ce000260032000004be000200be006011b80001
:100cf0006b092000950220000182cf000a00390014
:100d00000541b1000082cf00070039000541b10064
:100d10000982cf00040039000541b1000882cf00ec
:100d2000010039000541b1000542520012003200b5
:100d30000a003b0082817100610164008100d100e2
:100d40000080d3008984d3000884d3008b05e80099
:100d50000442e800f7ff3a000700370008044400a7
:100d600089844c0000004800818048008b05e90020
:100d70000442e900f9ff3a003dff07004f05be00bd
:100d80004f04be00000006008000780001007800db
:100d90003041780003c2b300834f5100faff3200a4
:100da000e94f5100f8ff3200edc14100834f51007f
:100db00003003a008000780013c0b300050037003c
:100dc0008041eb00b4c2b300844f510001003a00ef
:100dd000800078000000eb00020037006a02b900d2
:100de000040041003101fb000203b100e90f510092
:100df000faff36000304e000010032000000ea00c0
:100e00000000060000037800810278008501780068
:100e10000100370004037800110009008281d80026
:100e2000800178000602e8000300e000f9ff3a00c4
:100e3000034a7800110009008282d800000278007d
:100e40008141780084027800e9cf5100010034002c
:100e5000e7c1410001c3b30001d341000400e00039
:100e6000f4ff3a000600780000000600881f7800b2
:100e7000000478000100e00005003d000800780053
:100e8000d3c2b300035878008100ea0001003700a4
:100e900008007800dbff0700080078004f047800a6
:100ea00000000600800078003104e000feff3a00f8
:0c0eb0000080ea00008040000000060006
:020000040000fa
:100ebc000000000000000000000000000000000026
:100ecc000000000000000000000000000000000016
:100edc000000000000000000000000000000000006
:100eec0000000000000000000000000000000000f6
:101edc000100000000000000800000000000000075
:101eec000100000000000000800000000000000065
:101efc000300000000000000e000000000000000f3
:101f0c000700000000000000e000000000000000de
:101f1c000100000000000000800000000000000034
:101f2c00060000000000000060000000000000003f
:101f3c000200000000000000400000000000000053
:101f4c000000000000000000000000000000000085
:101f5c000000000000000000000000000000000075
:101f6c000000000000000000000000000000000065
:101f7c000000000000000000000000000000000055
:101f8c000000000000000000000000000000000045
:101f9c000000000000000000000000000000000035
:101fac000000000000000000000000000000000025
:101fbc000000000000000000000000000000000015
:101fcc000000000000000000000000000000000005
:101fdc0000000000000000000000000000000000f5
:101fec0000000000000000000000000000000000e5
:101ffc0000000000000000000000000000000000d5
:10200c0000000000000000000000000000000000c4
:10201c0000000000000000000000000000000000b4
:10202c0000000000000000000000000000000000a4
:10203c000000000000000000000000000000000094
:10204c000100000000000000800000000000000003
:10205c0001000000000000008000000000000000f3
:10206c0001000000000000008000000000000000e3
:10207c0001000000000000008000000000000000d3
:10208c0001000000000000008000000000000000c3
:10209c001f00000000000000f8000000000000001d
:1020ac001f00000000000000f8000000000000000d
:1020bc000100000000000000800000000000000093
:1020cc000100000000000000800000000000000083
:1020dc000100000000000000800000000000000073
:1020ec000100000000000000800000000000000063
:1020fc000100000000000000800000000000000053
:10210c0000000000000000000000000000000000c3
:10211c0000000000000000000000000000000000b3
:10212c0000000000000000000000000000000000a3
:10213c000000000000000000000000000000000093
:1023bc000700000000000000e0000000000000002a
:1023cc000700000000000000e0000000000000001a
:1023dc000700000000000000e0000000000000000a
:1023ec0000000000000000000000000000000000e1
:1023fc0000000000000000000000000000000000d1
:10240c0000000000000000000000000000000000c0
:10241c0000000000000000000000000000000000b0
:10242c0000000000000000000000000000000000a0
:10243c000000000000000000000000000000000090
:10244c000000000000000000000000000000000080
:10245c000000000000000000000000000000000070
:10246c000000000000000000000000000000000060
:10247c000000000000000000000000000000000050
:10248c000000000000000000000000000000000040
:10249c000000000000000000000000000000000030
:1024ac000000000000000000000000000000000020
:1024bc000000000000000000000000000000000010
:1024cc000000000000000000000000000000000000
:1024dc0000000000000000000000000000000000f0
:1024ec0000000000000000000000000000000000e0
:1024fc0000000000000000000000000000000000d0
:10250c0000000000000000000000000000000000bf
:10251c0000000000000000000000000000000000af
:10252c00000000000000000000000000000000009f
:10253c00000000000000000000000000000000008f
:10254c00000000000000000000000000000000007f
:10255c00000000000000000000000000000000006f
:10256c00000000000000000000000000000000005f
:10257c00000000000000000000000000000000004f
:10258c00000000000000000000000000000000003f
:10259c00000000000000000000000000000000002f
:1025ac00000000000000000000000000000000001f
:1025bc0018000000000000000000000000000000f7
:1025cc0018000000000000000000000000000000e7
:1025dc0000000000000000000000000000000000ef
:1025ec0000000000000000000000000000000000df
:1025fc0000000000000000000000000000000000cf
:10260c0000000000000000000000000000000000be
:10261c0000000000000000000000000000000000ae
:10262c00000000000000000000000000000000009e
:10263c00000000000000000000000000000000008e
:10264c00000000000000000000000000000000007e
:10265c00000000000000000000000000000000006e
:10266c00000000000000000000000000000000005e
:10267c00000000000000000000000000000000004e
:10268c00000000000000000000000000000000003e
:10269c00000000000000000000000000000000002e
:1026ac00000000000000000000000000000000001e
:1026bc00000000000000000000000000000000000e
:1026cc0000000000000000000000000000000000fe
:1026dc0000000000000000000000000000000000ee
:1026ec0000000000000000000000000000000000de
:1026fc0000000000000000000000000000000000ce
:10270c0000000000000000000000000000000000bd
:10271c0000000000000000000000000000000000ad
:10272c00000000000000000000000000000000009d
:10273c00000000000000000000000000000000008d
:10274c00000000000000000000000000000000007d
:10275c00000000000000000000000000000000006d
:10276c00000000000000000000000000000000005d
:10277c00000000000000000000000000000000004d
:10278c00000000000000000000000000000000003d
:10279c00000000000000000000000000000000002d
:1027ac00000000000000000000000000000000001d
:1027bc00000000000000000000000000000000000d
:1027cc0000000000000000000000000000000000fd
:1027dc000300000000000000c0000000000000002a
:1027ec000700000000000000e000000000000000f6
:1027fc000c00000000000000300000000000000091
:10280c000c00000000000000300000000000000080
:10281c00180000000000000018000000000000007c
:10282c00180000000000000018000000000000006c
:10283c00180000000000000018000000000000005c
:10284c00180000000000000018000000000000004c
:10285c00180000000000000018000000000000003c
:10286c00180000000000000018000000000000002c
:10287c00180000000000000018000000000000001c
:10288c00180000000000000018000000000000000c
:10289c0018000000000000001800000000000000fc
:1028ac0018000000000000001800000000000000ec
:1028bc000c000000000000001800000000000000e8
:1028cc000c000000000000003000000000000000c0
:1028dc000700000000000000e00000000000000005
:1028ec000300000000000000c00000000000000019
:1028fc0000000000000000000000000000000000cc
:10290c0000000000000000000000000000000000bb
:10291c0000000000000000000000000000000000ab
:10292c00000000000000000000000000000000009b
:10293c00000000000000000000000000000000008b
:10294c00000000000000000000000000000000007b
:10295c00000000000000000000000000000000006b
:10296c0001000000000000008000000000000000da
:10297c0001000000000000008000000000000000ca
:10298c0003000000000000008000000000000000b8
:10299c0007000000000000008000000000000000a4
:1029ac001d0000000000000080000000000000007e
:1029bc001900000000000000800000000000000072
:1029cc00010000000000000080000000000000007a
:1029dc00010000000000000080000000000000006a
:1029ec00010000000000000080000000000000005a
:1029fc00010000000000000080000000000000004a
:102a0c000100000000000000800000000000000039
:102a1c000100000000000000800000000000000029
:102a2c000100000000000000800000000000000019
:102a3c000100000000000000800000000000000009
:102a4c0001000000000000008000000000000000f9
:102a5c0001000000000000008000000000000000e9
:102a6c0001000000000000008000000000000000d9
:102a7c0001000000000000008000000000000000c9
:102a8c00000000000000000000000000000000003a
:102a9c00000000000000000000000000000000002a
:102aac00000000000000000000000000000000001a
:102abc00000000000000000000000000000000000a
:102acc0000000000000000000000000000000000fa
:102adc0000000000000000000000000000000000ea
:102aec0000000000000000000000000000000000da
:102afc000300000000000000e000000000000000e7
:102b0c000700000000000000f000000000000000c2
:102b1c000e00000000000000380000000000000063
:102b2c000c00000000000000180000000000000075
:102b3c000c00000000000000180000000000000065
:102b4c000000000000000000180000000000000061
:102b5c000000000000000000180000000000000051
:102b6c000000000000000000300000000000000029
:102b7c000000000000000000300000000000000019
:102b8c0000000000000000006000000000000000d9
:102b9c000000000000000000c00000000000000069
:102bac000100000000000000c00000000000000058
:102bbc000300000000000000800000000000000086
:102bcc0007000000000000000000000000000000f2
:102bdc000e000000000000000000000000000000db
:102bec000c000000000000000000000000000000cd
:102bfc001f00000000000000f800000000000000b2
:102c0c001f00000000000000f800000000000000a1
:102c1c0000000000000000000000000000000000a8
:102c2c000000000000000000000000000000000098
:102c3c000000000000000000000000000000000088
:102c4c000000000000000000000000000000000078
:102c5c000000000000000000000000000000000068
:102c6c000000000000000000000000000000000058
:102c7c000000000000000000000000000000000048
:102c8c000300000000000000e00000000000000055
:102c9c000700000000000000f00000000000000031
:102cac0006000000000000001800000000000000fa
:102cbc000c000000000000001800000000000000e4
:102ccc000c000000000000001800000000000000d4
:102cdc0000000000000000001800000000000000d0
:102cec0000000000000000003000000000000000a8
:102cfc000100000000000000f000000000000000d7
:102d0c000100000000000000f000000000000000c6
:102d1c00000000000000000038000000000000006f
:102d2c00000000000000000018000000000000007f
:102d3c00000000000000000018000000000000006f
:102d4c00000000000000000018000000000000005f
:102d5c000c00000000000000180000000000000043
:102d6c000c00000000000000180000000000000033
:102d7c000e00000000000000380000000000000001
:102d8c000700000000000000f00000000000000040
:102d9c000300000000000000e00000000000000044
:102dac000000000000000000000000000000000017
:102dbc000000000000000000000000000000000007
:102dcc0000000000000000000000000000000000f7
:102ddc0000000000000000000000000000000000e7
:102dec0000000000000000000000000000000000d7
:102dfc0000000000000000000000000000000000c7
:102e0c0000000000000000000000000000000000b6
:102e1c000000000000000000600000000000000046
:102e2c000000000000000000600000000000000036
:102e3c000000000000000000e000000000000000a6
:102e4c000100000000000000e00000000000000095
:102e5c000100000000000000e00000000000000085
:102e6c0003000000000000006000000000000000f3
:102e7c0003000000000000006000000000000000e3
:102e8c0006000000000000006000000000000000d0
:102e9c0006000000000000006000000000000000c0
:102eac000c000000000000006000000000000000aa
:102ebc000c0000000000000060000000000000009a
:102ecc00180000000000000060000000000000007e
:102edc001f00000000000000f800000000000000cf
:102eec001f00000000000000f800000000000000bf
:102efc000000000000000000600000000000000066
:102f0c000000000000000000600000000000000055
:102f1c000000000000000000600000000000000045
:102f2c000000000000000000600000000000000035
:102f3c000000000000000000000000000000000085
:102f4c000000000000000000000000000000000075
:102f5c000000000000000000000000000000000065
:102f6c000000000000000000000000000000000055
:102f7c000000000000000000000000000000000045
:102f8c000000000000000000000000000000000035
:102f9c000000000000000000000000000000000025
:102fac000700000000000000f0000000000000001e
:102fbc000700000000000000f0000000000000000e
:102fcc0006000000000000000000000000000000ef
:102fdc000c000000000000000000000000000000d9
:102fec000c000000000000000000000000000000c9
:102ffc000c000000000000000000000000000000b9
:10300c000f00000000000000e000000000000000c5
:10301c000f00000000000000f000000000000000a5
:10302c000c00000000000000300000000000000058
:10303c00000000000000000018000000000000006c
:10304c00000000000000000018000000000000005c
:10305c00000000000000000018000000000000004c
:10306c00000000000000000018000000000000003c
:10307c001800000000000000180000000000000014
:10308c0018000000000000003000000000000000ec
:10309c000c000000000000007000000000000000a8
:1030ac000700000000000000e0000000000000002d
:1030bc000300000000000000c00000000000000041
:1030cc0000000000000000000000000000000000f4
:1030dc0000000000000000000000000000000000e4
:1030ec0000000000000000000000000000000000d4
:1030fc0000000000000000000000000000000000c4
:10310c0000000000000000000000000000000000b3
:10311c0000000000000000000000000000000000a3
:10312c000000000000000000000000000000000093
:10313c000300000000000000e000000000000000a0
:10314c000700000000000000f0000000000000007c
:10315c000e0000000000000038000000000000001d
:10316c000c0000000000000018000000000000002f
:10317c00180000000000000000000000000000002b
:10318c00180000000000000000000000000000001b
:10319c001900000000000000c0000000000000004a
:1031ac001b00000000000000e00000000000000018
:1031bc001e000000000000003000000000000000b5
:1031cc001c000000000000003000000000000000a7
:1031dc0018000000000000001800000000000000b3
:1031ec0018000000000000001800000000000000a3
:1031fc001800000000000000180000000000000093
:10320c001800000000000000180000000000000082
:10321c001c00000000000000300000000000000056
:10322c000e00000000000000300000000000000054
:10323c000700000000000000e0000000000000009b
:10324c000300000000000000c000000000000000af
:10325c000000000000000000000000000000000062
:10326c000000000000000000000000000000000052
:10327c000000000000000000000000000000000042
:10328c000000000000000000000000000000000032
:10329c000000000000000000000000000000000022
:1032ac000000000000000000000000000000000012
:1032bc000000000000000000000000000000000002
:1032cc003f00000000000000fe00000000000000b5
:1032dc003f00000000000000fe00000000000000a5
:1032ec0000000000000000000c00000000000000c6
:1032fc0000000000000000001800000000000000aa
:10330c000000000000000000180000000000000099
:10331c000000000000000000300000000000000071
:10332c000000000000000000300000000000000061
:10333c000000000000000000600000000000000021
:10334c000000000000000000600000000000000011
:10335c000000000000000000600000000000000001
:10336c000000000000000000c00000000000000091
:10337c000000000000000000c00000000000000081
:10338c000000000000000000c00000000000000071
:10339c000000000000000000c00000000000000061
:1033ac000100000000000000800000000000000090
:1033bc000100000000000000800000000000000080
:1033cc000100000000000000800000000000000070
:1033dc000100000000000000800000000000000060
:1033ec0000000000000000000000000000000000d1
:1033fc0000000000000000000000000000000000c1
:10340c0000000000000000000000000000000000b0
:10341c0000000000000000000000000000000000a0
:10342c000000000000000000000000000000000090
:10343c000000000000000000000000000000000080
:10344c000000000000000000000000000000000070
:10345c000700000000000000e00000000000000079
:10346c000700000000000000e00000000000000069
:10347c000c00000000000000300000000000000004
:10348c000c000000000000003000000000000000f4
:10349c000c000000000000003000000000000000e4
:1034ac000c000000000000003000000000000000d4
:1034bc000c000000000000003000000000000000c4
:1034cc000700000000000000e00000000000000009
:1034dc000700000000000000e000000000000000f9
:1034ec000c00000000000000300000000000000094
:1034fc001800000000000000180000000000000090
:10350c00180000000000000018000000000000007f
:10351c00180000000000000018000000000000006f
:10352c00180000000000000018000000000000005f
:10353c00180000000000000018000000000000004f
:10354c000c00000000000000300000000000000033
:10355c000700000000000000e00000000000000078
:10356c000300000000000000c0000000000000008c
:10357c00000000000000000000000000000000003f
:10358c00000000000000000000000000000000002f
:10359c00000000000000000000000000000000001f
:1035ac00000000000000000000000000000000000f
:1035bc0000000000000000000000000000000000ff
:1035cc0000000000000000000000000000000000ef
:1035dc0000000000000000000000000000000000df
:1035ec000300000000000000c0000000000000000c
:1035fc000f00000000000000e000000000000000d0
:10360c000c00000000000000300000000000000072
:10361c000c00000000000000300000000000000062
:10362c00180000000000000018000000000000005e
:10363c00180000000000000018000000000000004e
:10364c00180000000000000018000000000000003e
:10365c00180000000000000018000000000000002e
:10366c000c0000000000000038000000000000000a
:10367c000e000000000000007800000000000000b8
:10368c000700000000000000d8000000000000004f
:10369c000300000000000000180000000000000003
:1036ac0000000000000000003800000000000000d6
:1036bc0018000000000000003800000000000000ae
:1036cc0018000000000000003000000000000000a6
:1036dc000c00000000000000700000000000000062
:1036ec000700000000000000e000000000000000e7
:1036fc000300000000000000c000000000000000fb
:10370c0000000000000000000000000000000000ad
:10371c00000000000000000000000000000000009d
:10372c00000000000000000000000000000000008d
:10373c00000000000000000000000000000000007d
:10374c00000000000000000000000000000000006d
:10375c00000000000000000000000000000000005d
:10376c00000000000000000000000000000000004d
:10377c00000000000000000000000000000000003d
:10378c00000000000000000000000000000000002d
:10379c00000000000000000000000000000000001d
:1037ac00010000000000000080000000000000008c
:1037bc00010000000000000080000000000000007c
:1037cc00010000000000000080000000000000006c
:1037dc0000000000000000000000000000000000dd
:1037ec0000000000000000000000000000000000cd
:1037fc0000000000000000000000000000000000bd
:10380c0000000000000000000000000000000000ac
:10381c00000000000000000000000000000000009c
:10382c00000000000000000000000000000000008c
:10383c00000000000000000000000000000000007c
:10384c00000000000000000000000000000000006c
:10385c0001000000000000008000000000000000db
:10386c0001000000000000008000000000000000cb
:10387c0001000000000000008000000000000000bb
:10388c00000000000000000000000000000000002c
:10389c00000000000000000000000000000000001c
:1038ac00000000000000000000000000000000000c
:1038bc0000000000000000000000000000000000fc
:103adc0000000000000000000800000000000000d2
:103aec000000000000000000380000000000000092
:103afc000000000000000000f800000000000000c2
:103b0c000300000000000000e000000000000000c6
:103b1c000700000000000000800000000000000012
:103b2c001e0000000000000000000000000000006b
:103b3c001c0000000000000000000000000000005d
:103b4c000f0000000000000000000000000000005a
:103b5c000300000000000000c00000000000000096
:103b6c000000000000000000f00000000000000059
:103b7c000000000000000000380000000000000001
:103b8c000000000000000000180000000000000011
:103b9c000000000000000000000000000000000019
:103bac000000000000000000000000000000000009
:103bbc0000000000000000000000000000000000f9
:103bcc0000000000000000000000000000000000e9
:103dfc0010000000000000000000000000000000a7
:103e0c001c0000000000000000000000000000008a
:103e1c000f00000000000000000000000000000087
:103e2c000300000000000000c000000000000000c3
:103e3c000000000000000000f00000000000000086
:103e4c0000000000000000007800000000000000ee
:103e5c00000000000000000038000000000000001e
:103e6c000000000000000000f00000000000000056
:103e7c000300000000000000c00000000000000073
:103e8c000f00000000000000000000000000000017
:103e9c001c000000000000000000000000000000fa
:103eac0018000000000000000000000000000000ee
:103ebc0000000000000000000000000000000000f6
:103ecc0000000000000000000000000000000000e6
:103edc0000000000000000000000000000000000d6
:103eec0000000000000000000000000000000000c6
:10426c0001000000000000008000000000000000c1
:10427c0001000000000000008000000000000000b1
:10428c000300000000000000c0000000000000005f
:10429c000300000000000000c0000000000000004f
:1042ac00060000000000000060000000000000009c
:1042bc00060000000000000060000000000000008c
:1042cc00060000000000000060000000000000007c
:1042dc000c00000000000000300000000000000096
:1042ec000c00000000000000300000000000000086
:1042fc000c00000000000000300000000000000076
:10430c001800000000000000300000000000000059
:10431c001f00000000000000f8000000000000007a
:10432c001f00000000000000f8000000000000006a
:10433c003000000000000000180000000000000029
:10434c0030000000000000000c0000000000000025
:10435c0030000000000000000c0000000000000015
:10436c0060000000000000000c00000000000000d5
:10437c0060000000000000000c00000000000000c5
:10438c000000000000000000000000000000000021
:10439c000000000000000000000000000000000011
:1043ac000000000000000000000000000000000001
:1043bc0000000000000000000000000000000000f1
:1043cc0000000000000000000000000000000000e1
:1043dc0000000000000000000000000000000000d1
:1043ec0000000000000000000000000000000000c1
:1043fc001f00000000000000e000000000000000b2
:10440c001f00000000000000f00000000000000091
:10441c001800000000000000380000000000000040
:10442c001800000000000000180000000000000050
:10443c001800000000000000180000000000000040
:10444c001800000000000000180000000000000030
:10445c001800000000000000180000000000000020
:10446c0018000000000000003800000000000000f0
:10447c001f00000000000000f00000000000000021
:10448c001f00000000000000f80000000000000009
:10449c0018000000000000001c00000000000000dc
:1044ac0018000000000000000c00000000000000dc
:1044bc0018000000000000000c00000000000000cc
:1044cc0018000000000000000c00000000000000bc
:1044dc0018000000000000000c00000000000000ac
:1044ec001800000000000000180000000000000090
:1044fc001f00000000000000f80000000000000099
:10450c001f00000000000000e000000000000000a0
:10451c00000000000000000000000000000000008f
:10452c00000000000000000000000000000000007f
:10453c00000000000000000000000000000000006f
:10454c00000000000000000000000000000000005f
:10455c00000000000000000000000000000000004f
:10456c00000000000000000000000000000000003f
:10457c00000000000000000000000000000000002f
:10458c000300000000000000e0000000000000003c
:10459c000f00000000000000f80000000000000008
:1045ac001c000000000000001c00000000000000c7
:1045bc0018000000000000000c00000000000000cb
:1045cc0018000000000000000c00000000000000bb
:1045dc00300000000000000000000000000000009f
:1045ec00300000000000000000000000000000008f
:1045fc00300000000000000000000000000000007f
:10460c00300000000000000000000000000000006e
:10461c00300000000000000000000000000000005e
:10462c00300000000000000000000000000000004e
:10463c00300000000000000000000000000000003e
:10464c00300000000000000000000000000000002e
:10465c0018000000000000000c000000000000002a
:10466c0018000000000000000c000000000000001a
:10467c001c000000000000001c00000000000000f6
:10468c000f00000000000000f80000000000000017
:10469c000300000000000000f0000000000000001b
:1046ac0000000000000000000000000000000000fe
:1046bc0000000000000000000000000000000000ee
:1046cc0000000000000000000000000000000000de
:1046dc0000000000000000000000000000000000ce
:1046ec0000000000000000000000000000000000be
:1046fc0000000000000000000000000000000000ae
:10470c00000000000000000000000000000000009d
:10471c003f00000000000000c0000000000000008e
:10472c003f00000000000000e0000000000000005e
:10473c00300000000000000030000000000000000d
:10474c003000000000000000180000000000000015
:10475c003000000000000000180000000000000005
:10476c0030000000000000000c0000000000000001
:10477c0030000000000000000c00000000000000f1
:10478c0030000000000000000c00000000000000e1
:10479c0030000000000000000c00000000000000d1
:1047ac0030000000000000000c00000000000000c1
:1047bc0030000000000000000c00000000000000b1
:1047cc0030000000000000000c00000000000000a1
:1047dc0030000000000000000c0000000000000091
:1047ec003000000000000000180000000000000075
:1047fc003000000000000000180000000000000065
:10480c0030000000000000007000000000000000fc
:10481c003f00000000000000e0000000000000006d
:10482c003f000000000000008000000000000000bd
:10483c00000000000000000000000000000000006c
:10484c00000000000000000000000000000000005c
:10485c00000000000000000000000000000000004c
:10486c00000000000000000000000000000000003c
:10487c00000000000000000000000000000000002c
:10488c00000000000000000000000000000000001c
:10489c00000000000000000000000000000000000c
:1048ac003f00000000000000f800000000000000c5
:1048bc003f00000000000000f800000000000000b5
:1048cc0030000000000000000000000000000000ac
:1048dc00300000000000000000000000000000009c
:1048ec00300000000000000000000000000000008c
:1048fc00300000000000000000000000000000007c
:10490c00300000000000000000000000000000006b
:10491c00300000000000000000000000000000005b
:10492c003f00000000000000f0000000000000004c
:10493c003f00000000000000f0000000000000003c
:10494c00300000000000000000000000000000002b
:10495c00300000000000000000000000000000001b
:10496c00300000000000000000000000000000000b
:10497c0030000000000000000000000000000000fb
:10498c0030000000000000000000000000000000eb
:10499c0030000000000000000000000000000000db
:1049ac003f00000000000000f800000000000000c4
:1049bc003f00000000000000f800000000000000b4
:1049cc0000000000000000000000000000000000db
:1049dc0000000000000000000000000000000000cb
:1049ec0000000000000000000000000000000000bb
:1049fc0000000000000000000000000000000000ab
:104a0c00000000000000000000000000000000009a
:104a1c00000000000000000000000000000000008a
:104a2c00000000000000000000000000000000007a
:104a3c001f00000000000000f80000000000000053
:104a4c001f00000000000000f80000000000000043
:104a5c001800000000000000000000000000000032
:104a6c001800000000000000000000000000000022
:104a7c001800000000000000000000000000000012
:104a8c001800000000000000000000000000000002
:104a9c0018000000000000000000000000000000f2
:104aac0018000000000000000000000000000000e2
:104abc001f00000000000000f000000000000000db
:104acc001f00000000000000f000000000000000cb
:104adc0018000000000000000000000000000000b2
:104aec0018000000000000000000000000000000a2
:104afc001800000000000000000000000000000092
:104b0c001800000000000000000000000000000081
:104b1c001800000000000000000000000000000071
:104b2c001800000000000000000000000000000061
:104b3c001800000000000000000000000000000051
:104b4c001800000000000000000000000000000041
:104b5c000000000000000000000000000000000049
:104b6c000000000000000000000000000000000039
:104b7c000000000000000000000000000000000029
:104b8c000000000000000000000000000000000019
:104b9c000000000000000000000000000000000009
:104bac0000000000000000000000000000000000f9
:104bbc0000000000000000000000000000000000e9
:104bcc000f00000000000000e000000000000000ea
:104bdc001f00000000000000f000000000000000ba
:104bec003800000000000000380000000000000049
:104bfc0030000000000000001c000000000000005d
:104c0c0060000000000000000c000000000000002c
:104c1c006000000000000000000000000000000028
:104c2c006000000000000000000000000000000018
:104c3c006000000000000000000000000000000008
:104c4c0060000000000000000000000000000000f8
:104c5c006000000000000000fc00000000000000ec
:104c6c006000000000000000fc00000000000000dc
:104c7c0060000000000000000c00000000000000bc
:104c8c0060000000000000000c00000000000000ac
:104c9c0070000000000000000c000000000000008c
:104cac0030000000000000001c00000000000000ac
:104cbc003c000000000000003c0000000000000070
:104ccc001f00000000000000f800000000000000c1
:104cdc000700000000000000e000000000000000e1
:104cec0000000000000000000000000000000000b8
:104cfc0000000000000000000000000000000000a8
:104d0c000000000000000000000000000000000097
:104d1c000000000000000000000000000000000087
:104d2c000000000000000000000000000000000077
:104d3c000000000000000000000000000000000067
:104d4c000000000000000000000000000000000057
:104d5c0030000000000000000c000000000000000b
:104d6c0030000000000000000c00000000000000fb
:104d7c0030000000000000000c00000000000000eb
:104d8c0030000000000000000c00000000000000db
:104d9c0030000000000000000c00000000000000cb
:104dac0030000000000000000c00000000000000bb
:104dbc0030000000000000000c00000000000000ab
:104dcc0030000000000000000c000000000000009b
:104ddc003f00000000000000fc000000000000008c
:104dec003f00000000000000fc000000000000007c
:104dfc0030000000000000000c000000000000006b
:104e0c0030000000000000000c000000000000005a
:104e1c0030000000000000000c000000000000004a
:104e2c0030000000000000000c000000000000003a
:104e3c0030000000000000000c000000000000002a
:104e4c0030000000000000000c000000000000001a
:104e5c0030000000000000000c000000000000000a
:104e6c0030000000000000000c00000000000000fa
:104e7c000000000000000000000000000000000026
:104e8c000000000000000000000000000000000016
:104e9c000000000000000000000000000000000006
:104eac0000000000000000000000000000000000f6
:104ebc0000000000000000000000000000000000e6
:104ecc0000000000000000000000000000000000d6
:104edc0000000000000000000000000000000000c6
:104eec000100000000000000800000000000000035
:104efc000100000000000000800000000000000025
:104f0c000100000000000000800000000000000014
:104f1c000100000000000000800000000000000004
:104f2c0001000000000000008000000000000000f4
:104f3c0001000000000000008000000000000000e4
:104f4c0001000000000000008000000000000000d4
:104f5c0001000000000000008000000000000000c4
:104f6c0001000000000000008000000000000000b4
:104f7c0001000000000000008000000000000000a4
:104f8c000100000000000000800000000000000094
:104f9c000100000000000000800000000000000084
:104fac000100000000000000800000000000000074
:104fbc000100000000000000800000000000000064
:104fcc000100000000000000800000000000000054
:104fdc000100000000000000800000000000000044
:104fec000100000000000000800000000000000034
:104ffc000100000000000000800000000000000024
:10500c000000000000000000000000000000000094
:10501c000000000000000000000000000000000084
:10502c000000000000000000000000000000000074
:10503c000000000000000000000000000000000064
:10504c000000000000000000000000000000000054
:10505c000000000000000000000000000000000044
:10506c000000000000000000000000000000000034
:10507c0000000000000000003000000000000000f4
:10508c0000000000000000003000000000000000e4
:10509c0000000000000000003000000000000000d4
:1050ac0000000000000000003000000000000000c4
:1050bc0000000000000000003000000000000000b4
:1050cc0000000000000000003000000000000000a4
:1050dc000000000000000000300000000000000094
:1050ec000000000000000000300000000000000084
:1050fc000000000000000000300000000000000074
:10510c000000000000000000300000000000000063
:10511c000000000000000000300000000000000053
:10512c000000000000000000300000000000000043
:10513c000000000000000000300000000000000033
:10514c000c00000000000000300000000000000017
:10515c000c00000000000000300000000000000007
:10516c000e000000000000007000000000000000b5
:10517c000700000000000000e0000000000000003c
:10518c000300000000000000c00000000000000050
:10519c000000000000000000000000000000000003
:1051ac0000000000000000000000000000000000f3
:1051bc0000000000000000000000000000000000e3
:1051cc0000000000000000000000000000000000d3
:1051dc0000000000000000000000000000000000c3
:1051ec0000000000000000000000000000000000b3
:1051fc0000000000000000000000000000000000a3
:10520c0030000000000000001c0000000000000046
:10521c00300000000000000038000000000000001a
:10522c003000000000000000e00000000000000062
:10523c003000000000000000e00000000000000052
:10524c003100000000000000c00000000000000061
:10525c00330000000000000080000000000000008f
:10526c0033000000000000000000000000000000ff
:10527c0037000000000000000000000000000000eb
:10528c003f00000000000000800000000000000053
:10529c003d00000000000000800000000000000045
:1052ac003900000000000000c000000000000000f9
:1052bc003000000000000000c000000000000000f2
:1052cc003000000000000000e000000000000000c2
:1052dc003000000000000000700000000000000022
:1052ec003000000000000000700000000000000012
:1052fc00300000000000000038000000000000003a
:10530c003000000000000000380000000000000029
:10531c0030000000000000001c0000000000000035
:10532c000000000000000000000000000000000071
:10533c000000000000000000000000000000000061
:10534c000000000000000000000000000000000051
:10535c000000000000000000000000000000000041
:10536c000000000000000000000000000000000031
:10537c000000000000000000000000000000000021
:10538c000000000000000000000000000000000011
:10539c0018000000000000000000000000000000e9
:1053ac0018000000000000000000000000000000d9
:1053bc0018000000000000000000000000000000c9
:1053cc0018000000000000000000000000000000b9
:1053dc0018000000000000000000000000000000a9
:1053ec001800000000000000000000000000000099
:1053fc001800000000000000000000000000000089
:10540c001800000000000000000000000000000078
:10541c001800000000000000000000000000000068
:10542c001800000000000000000000000000000058
:10543c001800000000000000000000000000000048
:10544c001800000000000000000000000000000038
:10545c001800000000000000000000000000000028
:10546c001800000000000000000000000000000018
:10547c001800000000000000000000000000000008
:10548c0018000000000000000000000000000000f8
:10549c001f00000000000000f000000000000000f1
:1054ac001f00000000000000f000000000000000e1
:1054bc0000000000000000000000000000000000e0
:1054cc0000000000000000000000000000000000d0
:1054dc0000000000000000000000000000000000c0
:1054ec0000000000000000000000000000000000b0
:1054fc0000000000000000000000000000000000a0
:10550c00000000000000000000000000000000008f
:10551c00000000000000000000000000000000007f
:10552c0070000000000000000e00000000000000f1
:10553c0070000000000000000e00000000000000e1
:10554c0078000000000000000e00000000000000c9
:10555c0078000000000000001e00000000000000a9
:10556c0078000000000000001e0000000000000099
:10557c0068000000000000001600000000000000a1
:10558c006c0000000000000016000000000000008d
:10559c006c0000000000000036000000000000005d
:1055ac006c0000000000000036000000000000004d
:1055bc006600000000000000660000000000000013
:1055cc006600000000000000660000000000000003
:1055dc0066000000000000006600000000000000f3
:1055ec006300000000000000c60000000000000086
:1055fc006300000000000000c60000000000000076
:10560c006300000000000000c60000000000000065
:10561c006100000000000000c60000000000000057
:10562c006100000000000000860000000000000087
:10563c006100000000000000860000000000000077
:10564c00000000000000000000000000000000004e
:10565c00000000000000000000000000000000003e
:10566c00000000000000000000000000000000002e
:10567c00000000000000000000000000000000001e
:10568c00000000000000000000000000000000000e
:10569c0000000000000000000000000000000000fe
:1056ac0000000000000000000000000000000000ee
:1056bc0018000000000000000600000000000000c0
:1056cc001c000000000000000600000000000000ac
:1056dc001e0000000000000006000000000000009a
:1056ec001e0000000000000006000000000000008a
:1056fc001b0000000000000006000000000000007d
:10570c001b0000000000000006000000000000006c
:10571c001b0000000000000006000000000000005c
:10572c001900000000000000c6000000000000008e
:10573c001800000000000000c6000000000000007f
:10574c001800000000000000c6000000000000006f
:10575c0018000000000000006600000000000000bf
:10576c0018000000000000006600000000000000af
:10577c00180000000000000066000000000000009f
:10578c0018000000000000003e00000000000000b7
:10579c0018000000000000001e00000000000000c7
:1057ac0018000000000000001e00000000000000b7
:1057bc0018000000000000000e00000000000000b7
:1057cc0018000000000000000600000000000000af
:1057dc0000000000000000000000000000000000bd
:1057ec0000000000000000000000000000000000ad
:1057fc00000000000000000000000000000000009d
:10580c00000000000000000000000000000000008c
:10581c00000000000000000000000000000000007c
:10582c00000000000000000000000000000000006c
:10583c000100000000000000c0000000000000009b
:10584c000700000000000000f00000000000000055
:10585c001e000000000000003800000000000000e6
:10586c0018000000000000001c00000000000000f8
:10587c0030000000000000000c00000000000000e0
:10588c0030000000000000000c00000000000000d0
:10589c006000000000000000060000000000000096
:1058ac006000000000000000060000000000000086
:1058bc006000000000000000060000000000000076
:1058cc006000000000000000060000000000000066
:1058dc006000000000000000060000000000000056
:1058ec006000000000000000060000000000000046
:1058fc006000000000000000060000000000000036
:10590c0030000000000000000e000000000000004d
:10591c0030000000000000000c000000000000003f
:10592c0018000000000000001c0000000000000037
:10593c001e00000000000000380000000000000005
:10594c000700000000000000f00000000000000054
:10595c0001000000000000008000000000000000ba
:10596c00000000000000000000000000000000002b
:10597c00000000000000000000000000000000001b
:10598c00000000000000000000000000000000000b
:10599c0000000000000000000000000000000000fb
:1059ac0000000000000000000000000000000000eb
:1059bc0000000000000000000000000000000000db
:1059cc0000000000000000000000000000000000cb
:1059dc003f00000000000000e0000000000000009c
:1059ec003f00000000000000f0000000000000007c
:1059fc003000000000000000380000000000000033
:105a0c003000000000000000180000000000000042
:105a1c003000000000000000180000000000000032
:105a2c003000000000000000180000000000000022
:105a3c003000000000000000180000000000000012
:105a4c003000000000000000180000000000000002
:105a5c003f00000000000000f0000000000000000b
:105a6c003f00000000000000e0000000000000000b
:105a7c0030000000000000000000000000000000ea
:105a8c0030000000000000000000000000000000da
:105a9c0030000000000000000000000000000000ca
:105aac0030000000000000000000000000000000ba
:105abc0030000000000000000000000000000000aa
:105acc00300000000000000000000000000000009a
:105adc00300000000000000000000000000000008a
:105aec00300000000000000000000000000000007a
:105afc00000000000000000000000000000000009a
:105b0c000000000000000000000000000000000089
:105b1c000000000000000000000000000000000079
:105b2c000000000000000000000000000000000069
:105b3c000000000000000000000000000000000059
:105b4c000000000000000000000000000000000049
:105b5c000300000000000000c00000000000000076
:105b6c000f00000000000000f0000000000000002a
:105b7c001e00000000000000780000000000000083
:105b8c0038000000000000001c00000000000000b5
:105b9c0030000000000000000c00000000000000bd
:105bac0030000000000000000c00000000000000ad
:105bbc006000000000000000060000000000000073
:105bcc006000000000000000060000000000000063
:105bdc006000000000000000060000000000000053
:105bec006000000000000000060000000000000043
:105bfc006000000000000000060000000000000033
:105c0c006000000000000000060000000000000022
:105c1c006000000000000000060000000000000012
:105c2c0030000000000000008c00000000000000ac
:105c3c003000000000000000cc000000000000005c
:105c4c003800000000000000f80000000000000018
:105c5c001c000000000000003800000000000000e4
:105c6c000f00000000000000fc000000000000001d
:105c7c000300000000000000ce0000000000000047
:105c8c000000000000000000000000000000000008
:105c9c0000000000000000000000000000000000f8
:105cac0000000000000000000000000000000000e8
:105cbc0000000000000000000000000000000000d8
:105ccc0000000000000000000000000000000000c8
:105cdc0000000000000000000000000000000000b8
:105cec0000000000000000000000000000000000a8
:105cfc003f00000000000000f00000000000000069
:105d0c003f00000000000000f80000000000000050
:105d1c0030000000000000000c000000000000003b
:105d2c0030000000000000000c000000000000002b
:105d3c0030000000000000000c000000000000001b
:105d4c0030000000000000000c000000000000000b
:105d5c0030000000000000001800000000000000ef
:105d6c0030000000000000003800000000000000bf
:105d7c003f00000000000000f000000000000000e8
:105d8c003f00000000000000c00000000000000008
:105d9c003000000000000000e000000000000000e7
:105dac003000000000000000600000000000000057
:105dbc003000000000000000300000000000000077
:105dcc00300000000000000038000000000000005f
:105ddc00300000000000000018000000000000006f
:105dec0030000000000000001c000000000000005b
:105dfc0030000000000000000c000000000000005b
:105e0c0030000000000000000e0000000000000048
:105e1c000000000000000000000000000000000076
:105e2c000000000000000000000000000000000066
:105e3c000000000000000000000000000000000056
:105e4c000000000000000000000000000000000046
:105e5c000000000000000000000000000000000036
:105e6c000000000000000000000000000000000026
:105e7c000300000000000000c00000000000000053
:105e8c000700000000000000f0000000000000000f
:105e9c000e000000000000003800000000000000b0
:105eac0018000000000000001800000000000000b6
:105ebc0018000000000000000c00000000000000b2
:105ecc0018000000000000000c00000000000000a2
:105edc00180000000000000000000000000000009e
:105eec000e00000000000000000000000000000098
:105efc000f00000000000000c000000000000000c7
:105f0c000300000000000000f00000000000000092
:105f1c0000000000000000007800000000000000fd
:105f2c0000000000000000000c0000000000000059
:105f3c0030000000000000000c0000000000000019
:105f4c0030000000000000000c0000000000000009
:105f5c0018000000000000000c0000000000000011
:105f6c0018000000000000000c0000000000000001
:105f7c000e000000000000003800000000000000cf
:105f8c000700000000000000f0000000000000000e
:105f9c000300000000000000c00000000000000032
:105fac0000000000000000000000000000000000e5
:105fbc0000000000000000000000000000000000d5
:105fcc0000000000000000000000000000000000c5
:105fdc0000000000000000000000000000000000b5
:105fec0000000000000000000000000000000000a5
:105ffc000000000000000000000000000000000095
:10600c000000000000000000000000000000000084
:10601c003f00000000000000fc0000000000000039
:10602c003f00000000000000fc0000000000000029
:10603c0001000000000000008000000000000000d3
:10604c0001000000000000008000000000000000c3
:10605c0001000000000000008000000000000000b3
:10606c0001000000000000008000000000000000a3
:10607c000100000000000000800000000000000093
:10608c000100000000000000800000000000000083
:10609c000100000000000000800000000000000073
:1060ac000100000000000000800000000000000063
:1060bc000100000000000000800000000000000053
:1060cc000100000000000000800000000000000043
:1060dc000100000000000000800000000000000033
:1060ec000100000000000000800000000000000023
:1060fc000100000000000000800000000000000013
:10610c000100000000000000800000000000000002
:10611c0001000000000000008000000000000000f2
:10612c0001000000000000008000000000000000e2
:10613c000000000000000000000000000000000053
:10614c000000000000000000000000000000000043
:10615c000000000000000000000000000000000033
:10616c000000000000000000000000000000000023
:10617c000000000000000000000000000000000013
:10618c000000000000000000000000000000000003
:10619c0000000000000000000000000000000000f3
:1061ac0030000000000000000c00000000000000a7
:1061bc0030000000000000000c0000000000000097
:1061cc0030000000000000000c0000000000000087
:1061dc0030000000000000000c0000000000000077
:1061ec0030000000000000000c0000000000000067
:1061fc0030000000000000000c0000000000000057
:10620c0030000000000000000c0000000000000046
:10621c0030000000000000000c0000000000000036
:10622c0030000000000000000c0000000000000026
:10623c0030000000000000000c0000000000000016
:10624c0030000000000000000c0000000000000006
:10625c0030000000000000000c00000000000000f6
:10626c0030000000000000000c00000000000000e6
:10627c0018000000000000001800000000000000e2
:10628c0018000000000000001800000000000000d2
:10629c001c0000000000000038000000000000009e
:1062ac000f00000000000000f000000000000000e3
:1062bc000300000000000000c0000000000000000f
:1062cc0000000000000000000000000000000000c2
:1062dc0000000000000000000000000000000000b2
:1062ec0000000000000000000000000000000000a2
:1062fc000000000000000000000000000000000092
:10630c000000000000000000000000000000000081
:10631c000000000000000000000000000000000071
:10632c000000000000000000000000000000000061
:10633c00300000000000000006000000000000001b
:10634c00300000000000000006000000000000000b
:10635c0030000000000000000c00000000000000f5
:10636c0018000000000000000c00000000000000fd
:10637c0018000000000000000c00000000000000ed
:10638c0018000000000000001800000000000000d1
:10639c000c000000000000001800000000000000cd
:1063ac000c000000000000001800000000000000bd
:1063bc000c00000000000000300000000000000095
:1063cc00060000000000000030000000000000008b
:1063dc00060000000000000030000000000000007b
:1063ec00060000000000000030000000000000006b
:1063fc00030000000000000060000000000000002e
:10640c00030000000000000060000000000000001d
:10641c00030000000000000060000000000000000d
:10642c000100000000000000c0000000000000009f
:10643c000100000000000000c0000000000000008f
:10644c000100000000000000c0000000000000007f
:10645c000000000000000000000000000000000030
:10646c000000000000000000000000000000000020
:10647c000000000000000000000000000000000010
:10648c000000000000000000000000000000000000
:10649c0000000000000000000000000000000000f0
:1064ac0000000000000000000000000000000000e0
:1064bc0000000000000000000000000000000000d0
:1064cc00c10000000000000083000000000000007c
:1064dc00c100000000000000c3000000000000002c
:1064ec00c300000000000000c3000000000000001a
:1064fc00c300000000000000c3000000000000000a
:10650c00c300000000000000630000000000000059
:10651c00c600000000000000630000000000000046
:10652c00c600000000000000630000000000000036
:10653c00c600000000000000630000000000000026
:10654c00c600000000000000630000000000000016
:10655c006600000000000000630000000000000066
:10656c006c0000000000000036000000000000007d
:10657c006c0000000000000036000000000000006d
:10658c006c0000000000000036000000000000005d
:10659c006c0000000000000036000000000000004d
:1065ac0038000000000000001c000000000000008b
:1065bc0038000000000000001c000000000000007b
:1065cc0038000000000000001c000000000000006b
:1065dc0018000000000000000c000000000000008b
:1065ec00000000000000000000000000000000009f
:1065fc00000000000000000000000000000000008f
:10660c00000000000000000000000000000000007e
:10661c00000000000000000000000000000000006e
:10662c00000000000000000000000000000000005e
:10663c00000000000000000000000000000000004e
:10664c00000000000000000000000000000000003e
:10665c001c000000000000000e0000000000000004
:10666c000c000000000000000c0000000000000006
:10667c000c000000000000001800000000000000ea
:10668c0006000000000000001800000000000000e0
:10669c0006000000000000003000000000000000b8
:1066ac00030000000000000060000000000000007b
:1066bc000300000000000000e000000000000000eb
:1066cc000100000000000000c000000000000000fd
:1066dc000000000000000000c000000000000000ee
:1066ec000100000000000000c000000000000000dd
:1066fc00030000000000000060000000000000002b
:10670c00030000000000000030000000000000004a
:10671c000600000000000000300000000000000037
:10672c00060000000000000018000000000000003f
:10673c000c00000000000000180000000000000029
:10674c0018000000000000000c0000000000000019
:10675c0018000000000000000c0000000000000009
:10676c0030000000000000000600000000000000e7
:10677c00000000000000000000000000000000000d
:10678c0000000000000000000000000000000000fd
:10679c0000000000000000000000000000000000ed
:1067ac0000000000000000000000000000000000dd
:1067bc0000000000000000000000000000000000cd
:1067cc0000000000000000000000000000000000bd
:1067dc0000000000000000000000000000000000ad
:1067ec0030000000000000000c0000000000000061
:1067fc0038000000000000000c0000000000000049
:10680c00180000000000000018000000000000004c
:10681c001c00000000000000180000000000000038
:10682c000c00000000000000300000000000000020
:10683c000600000000000000300000000000000016
:10684c0006000000000000006000000000000000d6
:10685c000300000000000000e00000000000000049
:10686c000300000000000000c00000000000000059
:10687c00010000000000000080000000000000008b
:10688c00010000000000000080000000000000007b
:10689c00010000000000000080000000000000006b
:1068ac00010000000000000080000000000000005b
:1068bc00010000000000000080000000000000004b
:1068cc00010000000000000080000000000000003b
:1068dc00010000000000000080000000000000002b
:1068ec00010000000000000080000000000000001b
:1068fc00010000000000000080000000000000000b
:10690c00000000000000000000000000000000007b
:10691c00000000000000000000000000000000006b
:10692c00000000000000000000000000000000005b
:10693c00000000000000000000000000000000004b
:10694c00000000000000000000000000000000003b
:10695c00000000000000000000000000000000002b
:10696c00000000000000000000000000000000001b
:10697c003f00000000000000fc00000000000000d0
:10698c003f00000000000000fc00000000000000c0
:10699c0000000000000000001c00000000000000cf
:1069ac0000000000000000003800000000000000a3
:1069bc00000000000000000070000000000000005b
:1069cc00000000000000000060000000000000005b
:1069dc000000000000000000e000000000000000cb
:1069ec000000000000000000c000000000000000db
:1069fc000100000000000000c000000000000000ca
:106a0c0003000000000000008000000000000000f7
:106a1c000300000000000000000000000000000067
:106a2c000600000000000000000000000000000054
:106a3c000e0000000000000000000000000000003c
:106a4c000c0000000000000000000000000000002e
:106a5c001800000000000000000000000000000012
:106a6c0038000000000000000000000000000000e2
:106a7c003f00000000000000fc00000000000000cf
:106a8c003f00000000000000fc00000000000000bf
:106a9c0000000000000000000000000000000000ea
:106aac0000000000000000000000000000000000da
:106abc0000000000000000000000000000000000ca
:106acc0000000000000000000000000000000000ba
:1074bc000700000000000000e000000000000000d9
:1074cc000f00000000000000f000000000000000b1
:1074dc001c00000000000000300000000000000054
:1074ec001800000000000000300000000000000048
:1074fc000000000000000000300000000000000050
:10750c000000000000000000f0000000000000007f
:10751c000f00000000000000f00000000000000060
:10752c001e00000000000000300000000000000001
:10753c0018000000000000003000000000000000f7
:10754c0018000000000000003000000000000000e7
:10755c001800000000000000700000000000000097
:10756c001c00000000000000f00000000000000003
:10757c000f00000000000000900000000000000060
:10758c0000000000000000000000000000000000ef
:10759c0000000000000000000000000000000000df
:1075ac0000000000000000000000000000000000cf
:1075bc0000000000000000000000000000000000bf
:1075cc0000000000000000000000000000000000af
:1075dc00000000000000000000000000000000009f
:1075ec00000000000000000000000000000000008f
:1075fc000c00000000000000000000000000000073
:10760c000c00000000000000000000000000000062
:10761c000c00000000000000000000000000000052
:10762c000c00000000000000000000000000000042
:10763c000c00000000000000c00000000000000072
:10764c000d00000000000000f00000000000000031
:10765c000e000000000000003000000000000000e0
:10766c000c000000000000001800000000000000ea
:10767c000c000000000000001800000000000000da
:10768c000c000000000000001800000000000000ca
:10769c000c000000000000001800000000000000ba
:1076ac000c000000000000001800000000000000aa
:1076bc000c0000000000000018000000000000009a
:1076cc000c0000000000000018000000000000008a
:1076dc000c0000000000000018000000000000007a
:1076ec000e00000000000000300000000000000050
:1076fc000f00000000000000e0000000000000008f
:10770c000d00000000000000c000000000000000a0
:10771c00000000000000000000000000000000005d
:10772c00000000000000000000000000000000004d
:10773c00000000000000000000000000000000003d
:10774c00000000000000000000000000000000002d
:10775c00000000000000000000000000000000001d
:10776c00000000000000000000000000000000000d
:10777c0000000000000000000000000000000000fd
:10778c0000000000000000000000000000000000ed
:10779c0000000000000000000000000000000000dd
:1077ac0000000000000000000000000000000000cd
:1077bc0000000000000000000000000000000000bd
:1077cc00030000000000000080000000000000002a
:1077dc000700000000000000e000000000000000b6
:1077ec000c00000000000000600000000000000021
:1077fc001800000000000000300000000000000035
:10780c001800000000000000000000000000000054
:10781c001800000000000000000000000000000044
:10782c001800000000000000000000000000000034
:10783c001800000000000000000000000000000024
:10784c001800000000000000000000000000000014
:10785c0018000000000000003000000000000000d4
:10786c0018000000000000003000000000000000c4
:10787c000c00000000000000600000000000000090
:10788c000700000000000000c00000000000000025
:10789c000300000000000000800000000000000059
:1078ac0000000000000000000000000000000000cc
:1078bc0000000000000000000000000000000000bc
:1078cc0000000000000000000000000000000000ac
:1078dc00000000000000000000000000000000009c
:1078ec00000000000000000000000000000000008c
:1078fc00000000000000000000000000000000007c
:10790c00000000000000000000000000000000006b
:10791c000000000000000000180000000000000043
:10792c000000000000000000180000000000000033
:10793c000000000000000000180000000000000023
:10794c000000000000000000180000000000000013
:10795c000100000000000000d80000000000000042
:10796c0003000000000000006800000000000000a0
:10797c0006000000000000003800000000000000bd
:10798c000c000000000000001800000000000000c7
:10799c000c000000000000001800000000000000b7
:1079ac000c000000000000001800000000000000a7
:1079bc000c00000000000000180000000000000097
:1079cc000c00000000000000180000000000000087
:1079dc000c00000000000000180000000000000077
:1079ec000c00000000000000180000000000000067
:1079fc000c00000000000000180000000000000057
:107a0c00060000000000000038000000000000002c
:107a1c000300000000000000e8000000000000006f
:107a2c000100000000000000d80000000000000071
:107a3c00000000000000000000000000000000003a
:107a4c00000000000000000000000000000000002a
:107a5c00000000000000000000000000000000001a
:107a6c00000000000000000000000000000000000a
:107a7c0000000000000000000000000000000000fa
:107a8c0000000000000000000000000000000000ea
:107a9c0000000000000000000000000000000000da
:107aac0000000000000000000000000000000000ca
:107abc0000000000000000000000000000000000ba
